{
  "contractName": "TitleEscrow",
  "abi": [
    {
      "inputs": [
        {
          "internalType": "contract ERC721",
          "name": "_tokenRegistry",
          "type": "address"
        },
        {
          "internalType": "address",
          "name": "_beneficiary",
          "type": "address"
        },
        {
          "internalType": "address",
          "name": "_holder",
          "type": "address"
        }
      ],
      "payable": false,
      "stateMutability": "nonpayable",
      "type": "constructor"
    },
    {
      "anonymous": false,
      "inputs": [
        {
          "indexed": true,
          "internalType": "address",
          "name": "previousHolder",
          "type": "address"
        },
        {
          "indexed": true,
          "internalType": "address",
          "name": "newHolder",
          "type": "address"
        }
      ],
      "name": "HolderChanged",
      "type": "event"
    },
    {
      "anonymous": false,
      "inputs": [
        {
          "indexed": true,
          "internalType": "address",
          "name": "_tokenRegistry",
          "type": "address"
        },
        {
          "indexed": true,
          "internalType": "address",
          "name": "_to",
          "type": "address"
        },
        {
          "indexed": true,
          "internalType": "uint256",
          "name": "_id",
          "type": "uint256"
        }
      ],
      "name": "TitleCeded",
      "type": "event"
    },
    {
      "anonymous": false,
      "inputs": [
        {
          "indexed": true,
          "internalType": "address",
          "name": "_tokenRegistry",
          "type": "address"
        },
        {
          "indexed": true,
          "internalType": "address",
          "name": "_from",
          "type": "address"
        },
        {
          "indexed": true,
          "internalType": "uint256",
          "name": "_id",
          "type": "uint256"
        }
      ],
      "name": "TitleReceived",
      "type": "event"
    },
    {
      "anonymous": false,
      "inputs": [
        {
          "indexed": true,
          "internalType": "uint256",
          "name": "_tokenid",
          "type": "uint256"
        },
        {
          "indexed": true,
          "internalType": "address",
          "name": "_from",
          "type": "address"
        },
        {
          "indexed": true,
          "internalType": "address",
          "name": "_to",
          "type": "address"
        }
      ],
      "name": "TransferEndorsed",
      "type": "event"
    },
    {
      "constant": true,
      "inputs": [],
      "name": "_tokenId",
      "outputs": [
        {
          "internalType": "uint256",
          "name": "",
          "type": "uint256"
        }
      ],
      "payable": false,
      "stateMutability": "view",
      "type": "function"
    },
    {
      "constant": true,
      "inputs": [],
      "name": "beneficiary",
      "outputs": [
        {
          "internalType": "address",
          "name": "",
          "type": "address"
        }
      ],
      "payable": false,
      "stateMutability": "view",
      "type": "function"
    },
    {
      "constant": true,
      "inputs": [],
      "name": "holder",
      "outputs": [
        {
          "internalType": "address",
          "name": "",
          "type": "address"
        }
      ],
      "payable": false,
      "stateMutability": "view",
      "type": "function"
    },
    {
      "constant": true,
      "inputs": [],
      "name": "isBeneficiary",
      "outputs": [
        {
          "internalType": "bool",
          "name": "",
          "type": "bool"
        }
      ],
      "payable": false,
      "stateMutability": "view",
      "type": "function"
    },
    {
      "constant": true,
      "inputs": [],
      "name": "isHolder",
      "outputs": [
        {
          "internalType": "bool",
          "name": "",
          "type": "bool"
        }
      ],
      "payable": false,
      "stateMutability": "view",
      "type": "function"
    },
    {
      "constant": true,
      "inputs": [],
      "name": "tokenRegistry",
      "outputs": [
        {
          "internalType": "contract ERC721",
          "name": "",
          "type": "address"
        }
      ],
      "payable": false,
      "stateMutability": "view",
      "type": "function"
    },
    {
      "constant": false,
      "inputs": [
        {
          "internalType": "address",
          "name": "operator",
          "type": "address"
        },
        {
          "internalType": "address",
          "name": "from",
          "type": "address"
        },
        {
          "internalType": "uint256",
          "name": "tokenId",
          "type": "uint256"
        },
        {
          "internalType": "bytes",
          "name": "data",
          "type": "bytes"
        }
      ],
      "name": "onERC721Received",
      "outputs": [
        {
          "internalType": "bytes4",
          "name": "",
          "type": "bytes4"
        }
      ],
      "payable": false,
      "stateMutability": "nonpayable",
      "type": "function"
    },
    {
      "constant": false,
      "inputs": [
        {
          "internalType": "address",
          "name": "newHolder",
          "type": "address"
        }
      ],
      "name": "changeHolder",
      "outputs": [],
      "payable": false,
      "stateMutability": "nonpayable",
      "type": "function"
    },
    {
      "constant": false,
      "inputs": [
        {
          "internalType": "address",
          "name": "newBeneficiary",
          "type": "address"
        }
      ],
      "name": "endorseTransfer",
      "outputs": [],
      "payable": false,
      "stateMutability": "nonpayable",
      "type": "function"
    },
    {
      "constant": false,
      "inputs": [
        {
          "internalType": "address",
          "name": "newBeneficiary",
          "type": "address"
        }
      ],
      "name": "transferTo",
      "outputs": [],
      "payable": false,
      "stateMutability": "nonpayable",
      "type": "function"
    }
  ],
  "bytecode": "0x60806040526000600460006101000a81548173ffffffffffffffffffffffffffffffffffffffff021916908373ffffffffffffffffffffffffffffffffffffffff1602179055506000600460146101000a81548160ff0219169083600281111561006557fe5b021790555034801561007657600080fd5b506040516117c13803806117c18339818101604052606081101561009957600080fd5b810190808051906020019092919080519060200190929190805190602001909291905050508082806000806101000a81548173ffffffffffffffffffffffffffffffffffffffff021916908373ffffffffffffffffffffffffffffffffffffffff1602179055505080600160006101000a81548173ffffffffffffffffffffffffffffffffffffffff021916908373ffffffffffffffffffffffffffffffffffffffff1602179055508073ffffffffffffffffffffffffffffffffffffffff16600073ffffffffffffffffffffffffffffffffffffffff167f076c2af751a37d3871addf9a6fdedbaf3827fb030bf1d04c43a1421420fcc98760405160405180910390a35082600260006101000a81548173ffffffffffffffffffffffffffffffffffffffff021916908373ffffffffffffffffffffffffffffffffffffffff1602179055505050506115d0806101f16000396000f3fe608060405234801561001057600080fd5b506004361061009e5760003560e01c80637b70209f116100665780637b70209f146102c85780639d23c4c7146102ea578063a03fa7e314610334578063a90d16dc14610378578063e534155d146103bc5761009e565b806312494160146100a3578063150b7a02146100c5578063248225141461021c57806338af3eed1461023a5780635a87db7514610284575b600080fd5b6100ab610406565b604051808215151515815260200191505060405180910390f35b6101c8600480360360808110156100db57600080fd5b81019080803573ffffffffffffffffffffffffffffffffffffffff169060200190929190803573ffffffffffffffffffffffffffffffffffffffff169060200190929190803590602001909291908035906020019064010000000081111561014257600080fd5b82018360208201111561015457600080fd5b8035906020019184600183028401116401000000008311171561017657600080fd5b91908080601f016020809104026020016040519081016040528093929190818152602001838380828437600081840152601f19601f820116905080830192505050505050509192919290505050610465565b60405180827bffffffffffffffffffffffffffffffffffffffffffffffffffffffff19167bffffffffffffffffffffffffffffffffffffffffffffffffffffffff1916815260200191505060405180910390f35b610224610632565b6040518082815260200191505060405180910390f35b610242610638565b604051808273ffffffffffffffffffffffffffffffffffffffff1673ffffffffffffffffffffffffffffffffffffffff16815260200191505060405180910390f35b6102c66004803603602081101561029a57600080fd5b81019080803573ffffffffffffffffffffffffffffffffffffffff16906020019092919050505061065d565b005b6102d06108d3565b604051808215151515815260200191505060405180910390f35b6102f2610931565b604051808273ffffffffffffffffffffffffffffffffffffffff1673ffffffffffffffffffffffffffffffffffffffff16815260200191505060405180910390f35b6103766004803603602081101561034a57600080fd5b81019080803573ffffffffffffffffffffffffffffffffffffffff169060200190929190505050610957565b005b6103ba6004803603602081101561038e57600080fd5b81019080803573ffffffffffffffffffffffffffffffffffffffff169060200190929190505050610f01565b005b6103c461122d565b604051808273ffffffffffffffffffffffffffffffffffffffff1673ffffffffffffffffffffffffffffffffffffffff16815260200191505060405180910390f35b6000600160009054906101000a900473ffffffffffffffffffffffffffffffffffffffff1673ffffffffffffffffffffffffffffffffffffffff16610449611253565b73ffffffffffffffffffffffffffffffffffffffff1614905090565b600080600281111561047357fe5b600460149054906101000a900460ff16600281111561048e57fe5b146104e4576040517f08c379a000000000000000000000000000000000000000000000000000000000815260040180806020018281038252602a815260200180611572602a913960400191505060405180910390fd5b600260009054906101000a900473ffffffffffffffffffffffffffffffffffffffff1673ffffffffffffffffffffffffffffffffffffffff16610525611253565b73ffffffffffffffffffffffffffffffffffffffff1614610591576040517f08c379a000000000000000000000000000000000000000000000000000000000815260040180806020018281038252604781526020018061152b6047913960600191505060405180910390fd5b826003819055506003548473ffffffffffffffffffffffffffffffffffffffff166105ba611253565b73ffffffffffffffffffffffffffffffffffffffff167f01fcbb5289f65a5306cb0d0c6a79f53f0c1c0b245a042e3565e30c0e6104e24060405160405180910390a46001600460146101000a81548160ff0219169083600281111561061b57fe5b021790555063150b7a0260e01b9050949350505050565b60035481565b6000809054906101000a900473ffffffffffffffffffffffffffffffffffffffff1681565b600060035414156106b9576040517f08c379a000000000000000000000000000000000000000000000000000000000815260040180806020018281038252602c81526020018061140a602c913960400191505060405180910390fd5b600160028111156106c657fe5b600460149054906101000a900460ff1660028111156106e157fe5b14610737576040517f08c379a00000000000000000000000000000000000000000000000000000000081526004018080602001828103825260238152602001806114986023913960400191505060405180910390fd5b3073ffffffffffffffffffffffffffffffffffffffff16600260009054906101000a900473ffffffffffffffffffffffffffffffffffffffff1673ffffffffffffffffffffffffffffffffffffffff16636352211e6003546040518263ffffffff1660e01b81526004018082815260200191505060206040518083038186803b1580156107c357600080fd5b505afa1580156107d7573d6000803e3d6000fd5b505050506040513d60208110156107ed57600080fd5b810190808051906020019092919050505073ffffffffffffffffffffffffffffffffffffffff161461086a576040517f08c379a000000000000000000000000000000000000000000000000000000000815260040180806020018281038252602f815260200180611436602f913960400191505060405180910390fd5b610872610406565b6108c7576040517f08c379a00000000000000000000000000000000000000000000000000000000081526004018080602001828103825260338152602001806114656033913960400191505060405180910390fd5b6108d08161125b565b50565b60008060009054906101000a900473ffffffffffffffffffffffffffffffffffffffff1673ffffffffffffffffffffffffffffffffffffffff16610915611253565b73ffffffffffffffffffffffffffffffffffffffff1614905090565b600260009054906101000a900473ffffffffffffffffffffffffffffffffffffffff1681565b600060035414156109b3576040517f08c379a000000000000000000000000000000000000000000000000000000000815260040180806020018281038252602c81526020018061140a602c913960400191505060405180910390fd5b600160028111156109c057fe5b600460149054906101000a900460ff1660028111156109db57fe5b14610a31576040517f08c379a00000000000000000000000000000000000000000000000000000000081526004018080602001828103825260238152602001806114986023913960400191505060405180910390fd5b3073ffffffffffffffffffffffffffffffffffffffff16600260009054906101000a900473ffffffffffffffffffffffffffffffffffffffff1673ffffffffffffffffffffffffffffffffffffffff16636352211e6003546040518263ffffffff1660e01b81526004018082815260200191505060206040518083038186803b158015610abd57600080fd5b505afa158015610ad1573d6000803e3d6000fd5b505050506040513d6020811015610ae757600080fd5b810190808051906020019092919050505073ffffffffffffffffffffffffffffffffffffffff1614610b64576040517f08c379a000000000000000000000000000000000000000000000000000000000815260040180806020018281038252602f815260200180611436602f913960400191505060405180910390fd5b610b6c610406565b610bc1576040517f08c379a00000000000000000000000000000000000000000000000000000000081526004018080602001828103825260338152602001806114656033913960400191505060405180910390fd5b600073ffffffffffffffffffffffffffffffffffffffff168173ffffffffffffffffffffffffffffffffffffffff161415610c47576040517f08c379a000000000000000000000000000000000000000000000000000000000815260040180806020018281038252602f8152602001806114bb602f913960400191505060405180910390fd5b6000809054906101000a900473ffffffffffffffffffffffffffffffffffffffff1673ffffffffffffffffffffffffffffffffffffffff16600160009054906101000a900473ffffffffffffffffffffffffffffffffffffffff1673ffffffffffffffffffffffffffffffffffffffff1614610d6457600460009054906101000a900473ffffffffffffffffffffffffffffffffffffffff1673ffffffffffffffffffffffffffffffffffffffff168173ffffffffffffffffffffffffffffffffffffffff1614610d63576040517f08c379a00000000000000000000000000000000000000000000000000000000081526004018080602001828103825260418152602001806114ea6041913960600191505060405180910390fd5b5b6002600460146101000a81548160ff02191690836002811115610d8357fe5b02179055506003548173ffffffffffffffffffffffffffffffffffffffff16600260009054906101000a900473ffffffffffffffffffffffffffffffffffffffff1673ffffffffffffffffffffffffffffffffffffffff167fcf31cbde15ae9b0bfff5442830acd2764cad8da3394f189aa10c5a932e5b295560405160405180910390a4600260009054906101000a900473ffffffffffffffffffffffffffffffffffffffff1673ffffffffffffffffffffffffffffffffffffffff166342842e0e30836003546040518463ffffffff1660e01b8152600401808473ffffffffffffffffffffffffffffffffffffffff1673ffffffffffffffffffffffffffffffffffffffff1681526020018373ffffffffffffffffffffffffffffffffffffffff1673ffffffffffffffffffffffffffffffffffffffff1681526020018281526020019350505050600060405180830381600087803b158015610ee657600080fd5b505af1158015610efa573d6000803e3d6000fd5b5050505050565b60006003541415610f5d576040517f08c379a000000000000000000000000000000000000000000000000000000000815260040180806020018281038252602c81526020018061140a602c913960400191505060405180910390fd5b60016002811115610f6a57fe5b600460149054906101000a900460ff166002811115610f8557fe5b14610fdb576040517f08c379a00000000000000000000000000000000000000000000000000000000081526004018080602001828103825260238152602001806114986023913960400191505060405180910390fd5b3073ffffffffffffffffffffffffffffffffffffffff16600260009054906101000a900473ffffffffffffffffffffffffffffffffffffffff1673ffffffffffffffffffffffffffffffffffffffff16636352211e6003546040518263ffffffff1660e01b81526004018082815260200191505060206040518083038186803b15801561106757600080fd5b505afa15801561107b573d6000803e3d6000fd5b505050506040513d602081101561109157600080fd5b810190808051906020019092919050505073ffffffffffffffffffffffffffffffffffffffff161461110e576040517f08c379a000000000000000000000000000000000000000000000000000000000815260040180806020018281038252602f815260200180611436602f913960400191505060405180910390fd5b6111166108d3565b61116b576040517f08c379a000000000000000000000000000000000000000000000000000000000815260040180806020018281038252603f8152602001806113a2603f913960400191505060405180910390fd5b8073ffffffffffffffffffffffffffffffffffffffff166000809054906101000a900473ffffffffffffffffffffffffffffffffffffffff1673ffffffffffffffffffffffffffffffffffffffff166003547f3383502786017d4313de6f4755a9e164f7159c62aa655562768f2ffa9fe8c45460405160405180910390a480600460006101000a81548173ffffffffffffffffffffffffffffffffffffffff021916908373ffffffffffffffffffffffffffffffffffffffff16021790555050565b600160009054906101000a900473ffffffffffffffffffffffffffffffffffffffff1681565b600033905090565b600073ffffffffffffffffffffffffffffffffffffffff168173ffffffffffffffffffffffffffffffffffffffff1614156112e1576040517f08c379a00000000000000000000000000000000000000000000000000000000081526004018080602001828103825260298152602001806113e16029913960400191505060405180910390fd5b8073ffffffffffffffffffffffffffffffffffffffff16600160009054906101000a900473ffffffffffffffffffffffffffffffffffffffff1673ffffffffffffffffffffffffffffffffffffffff167f076c2af751a37d3871addf9a6fdedbaf3827fb030bf1d04c43a1421420fcc98760405160405180910390a380600160006101000a81548173ffffffffffffffffffffffffffffffffffffffff021916908373ffffffffffffffffffffffffffffffffffffffff1602179055505056fe4861734e616d656442656e65666963696172793a206f6e6c79207468652062656e6566696369617279206d617920696e766f6b652061207472616e73666572486173486f6c6465723a206e657720686f6c64657220697320746865207a65726f20616464726573735469746c65457363726f773a20436f6e7472616374206973206e6f7420686f6c64696e67206120746f6b656e5469746c65457363726f773a20436f6e7472616374206973206e6f7420746865206f776e6572206f6620746f6b656e486173486f6c6465723a206f6e6c792074686520686f6c646572206d617920696e766f6b6520746869732066756e6374696f6e5469746c65457363726f773a20436f6e7472616374206973206e6f7420696e207573655469746c65457363726f773a205472616e7366657272696e6720746f20307830206973206e6f7420616c6c6f7765645469746c65457363726f773a205472616e736665722074617267657420686173206e6f74206265656e20656e646f727365642062792062656e65666963696172795469746c65457363726f773a204f6e6c7920746f6b656e732066726f6d20707265646566696e656420746f6b656e2072656769737472792063616e2062652061636365707465645469746c65457363726f773a20436f6e747261637420686173206265656e2075736564206265666f7265a265627a7a7231582045d8cb3a8e01d86123214bcb440dd4d6555f6833d21f654796821d959334af4664736f6c634300050c0032",
  "source": "pragma solidity ^0.5.11;\n\nimport \"./ERC721.sol\";\n\ncontract HasNamedBeneficiary is Context {\n    address public beneficiary;\n\n    constructor (address _beneficiary) internal {\n        beneficiary = _beneficiary ;\n    }\n\n    modifier onlyBeneficiary() {\n        require(isBeneficiary(), \"HasNamedBeneficiary: only the beneficiary may invoke a transfer\");\n        _;\n    }\n\n    function isBeneficiary() public view returns (bool) {\n        return _msgSender() == beneficiary;\n    }\n}\n\ncontract HasHolder is Context {\n    address public holder;\n    \n    event HolderChanged(address indexed previousHolder, address indexed newHolder);\n    constructor (address _holder) internal {\n        holder = _holder;\n        emit HolderChanged(address(0), _holder);\n    }\n\n    modifier onlyHolder() {\n        require(isHolder(), \"HasHolder: only the holder may invoke this function\");\n        _;\n    }\n\n    function isHolder() public view returns (bool) {\n        return _msgSender() == holder;\n    }\n\n    function _changeHolder(address newHolder) internal {\n        require(newHolder != address(0), \"HasHolder: new holder is the zero address\");\n        emit HolderChanged(holder, newHolder);\n        holder = newHolder;\n    }\n}\n\ncontract TitleEscrow is Context, IERC721Receiver, HasNamedBeneficiary, HasHolder  {\n    event TitleReceived(address indexed _tokenRegistry, address indexed _from, uint256 indexed _id);\n    event TitleCeded(address indexed _tokenRegistry, address indexed _to, uint256 indexed _id);\n    event TransferEndorsed(uint256 indexed _tokenid, address indexed _from, address indexed _to);\n\n    enum StatusTypes { Uninitialised, InUse, Exited }\n    ERC721 public tokenRegistry;\n    uint256 public _tokenId;\n    address private approvedTransferTarget = address(0);\n    StatusTypes status = StatusTypes.Uninitialised;\n    \n    constructor(ERC721 _tokenRegistry, address _beneficiary, address _holder) HasNamedBeneficiary(_beneficiary) HasHolder(_holder) public {\n        tokenRegistry = ERC721(_tokenRegistry);\n    }\n\n    function onERC721Received(\n        address operator,   // operator is the account that's initiating the transfer\n        address from,       // previous token owner\n        uint256 tokenId,\n        bytes memory data\n    )\n        public\n        returns(bytes4)\n    {\n        require(status == StatusTypes.Uninitialised, \"TitleEscrow: Contract has been used before\");\n        require(_msgSender() == address(tokenRegistry), \"TitleEscrow: Only tokens from predefined token registry can be accepted\");\n        _tokenId = tokenId;\n        emit TitleReceived(_msgSender(), from, _tokenId);\n        status = StatusTypes.InUse;\n        return 0x150b7a02;\n    }\n    \n    function changeHolder(address newHolder) public isHoldingToken onlyHolder {\n        _changeHolder(newHolder);\n    }\n\n    modifier isHoldingToken()  {\n        require(_tokenId != uint256(0), \"TitleEscrow: Contract is not holding a token\");\n        require(status == StatusTypes.InUse, \"TitleEscrow: Contract is not in use\");\n        require(tokenRegistry.ownerOf(_tokenId) == address(this),\n            \"TitleEscrow: Contract is not the owner of token\");\n        _;\n    }\n    \n    function endorseTransfer(address newBeneficiary) public isHoldingToken onlyBeneficiary {\n        emit TransferEndorsed(_tokenId, beneficiary, newBeneficiary);\n        approvedTransferTarget = newBeneficiary;\n    }\n\n    function transferTo(address newBeneficiary) public isHoldingToken onlyHolder {\n        require(newBeneficiary != address(0), \"TitleEscrow: Transferring to 0x0 is not allowed\");\n        if (holder != beneficiary) {\n            require(newBeneficiary == approvedTransferTarget, \"TitleEscrow: Transfer target has not been endorsed by beneficiary\");\n        }\n        status = StatusTypes.Exited;\n        emit TitleCeded(address(tokenRegistry), newBeneficiary, _tokenId);\n        tokenRegistry.safeTransferFrom(address(this), address(newBeneficiary), _tokenId);\n    }\n}",
  "sourcePath": "/home/siriuz/Projects/govtechsg/dlt/internal/open-attestation/oa-token/contracts/TitleEscrow.sol",
  "compiler": {
    "name": "solc",
    "version": "0.5.12+commit.7709ece9.Emscripten.clang"
  },
  "schemaVersion": "3.0.19",
  "updatedAt": "2019-12-27T03:28:49.237Z",
  "devdoc": {
    "methods": {}
  },
  "userdoc": {
    "methods": {}
  }
}